:100000000C9463000C948B000C948B000C948B006C
:100010000C948B000C948B000C948B000C948B0034
:100020000C948B000C948B000C948B000C948B0024
:100030000C948B000C948B000C948B000C948B0014
:100040000C9446020C948B000C94DD040C940F0568
:100050000C948B000C948B000C948B000C948B00F4
:100060000C948B000C948B0000000008000201002F
:100070000003040700000000000000000102040863
:100080001020408001020408102001020408102002
:10009000040404040404040402020202020203032E
:1000A00003030303000000002300260029000000D2
:1000B0000000250028002B0000000000240027007D
:1000C0002A0018013F0511241FBECFEFD8E0DEBF84
:1000D000CDBF11E0A0E0B1E0EAE1FDE002C0059093
:1000E0000D92A234B107D9F721E0A2E4B1E001C03A
:1000F0001D92AD3FB207E1F710E0C6ECD0E004C0BE
:100100002297FE010E948706C23CD107C9F70E94D0
:1001100083050C948B060C94000026E040E051EE21
:1001200060E070E080E691E00E947B0460E082E0A5
:100130000E94000361E08DE00E94000360E08DE01A
:100140000C94390387E491E00E94620187E491E016
:100150000E9434028823F9F081E08093420161E03B
:100160008DE00E9439030E949002AB01BC014093D4
:1001700043015093440160934501709346012AE086
:1001800030E080E691E00E94560660E071E080E693
:1001900091E00E94EB0587E491E00E94FD01882335
:1001A00011F10E949002AB01BC01409343015093B6
:1001B000440160934501709346012AE030E080E6F7
:1001C00091E00E9456066EE071E080E691E00E94A8
:1001D000EB0561E080914201811160E06093420192
:1001E0008DE00E94390387E491E00E943C0288235D
:1001F000F1F01092420160E08DE00E9439030E940C
:100200009002AB01BC0140934301509344016093C1
:100210004501709346012AE030E080E691E00E94BB
:10022000560663E271E080E691E00C94EB050895D8
:100230000F931F9304EF11E022E330E04AE050E017
:1002400062E070E087E491E00E9429011F910F9124
:1002500008950F931F93FC01678755874487118783
:10026000008733872287148215821682178280E2E4
:1002700086871F910F9108950F931F93CF93DF935C
:100280001F92CDB7DEB78C01FC016787862F69838B
:100290000E946F03F80116866981862F0E946F0302
:1002A000892B19F083E0F80186870E949002F801FB
:1002B00060837183828393830F90DF91CF911F912D
:1002C0000F910895FF920F931F93CF93DF93EC014B
:1002D0008E8585FF09C06F8570E0CE010E943C01CC
:1002E0008E8580728E8783C08F850E946F03FF2466
:1002F000F394892B09F4F12C8E85982F977F9E8794
:1003000086958170F81651F00E9490026883798377
:100310008A839B838E8592E0892721C00E94900268
:10032000088119812A813B81601B710B820B930B21
:100330000C851D8520E030E0601771078207930768
:1003400078F08E8581708F1559F00E949002688335
:1003500079838A839B838E8591E0892788608E8745
:100360008E8583FF1EC084FD1AC00E9490020C81FE
:100370001D812E813F81601B710B820B930B0885C1
:10038000198520E030E0601771078207930738F184
:100390000E9490026C837D838E839F8324C08F7E16
:1003A0001DC04C815D816E817F81452B462B472B83
:1003B000D1F00E9490020C811D812E813F81601B33
:1003C000710B820B930B0885198520E030E06017D4
:1003D00071078207930738F08E8580618E871C82B3
:1003E0001D821E821F828E8583FB882780F9DF9104
:1003F000CF911F910F91FF9008950F931F93CF936B
:10040000DF93EC018E8584FF29C08C819D81AE81B4
:10041000BF81892B8A2B8B2BD9F00E9490020C81F3
:100420001D812E813F81601B710B820B930B0A850E
:100430001B8520E030E0601771078207930770F09A
:100440000E9490026C837D838E839F8381E007C02E
:100450000E9490026C837D838E839F8380E0DF9176
:10046000CF911F910F910895FC019685997081E0BD
:10047000993009F080E00895FC01868580FD04C074
:1004800083FB882780F9089580E008951F920F92DA
:100490000FB60F9211242F933F938F939F93AF9397
:1004A000BF938091580190915901A0915A01B09148
:1004B0005B013091570123E0230F2D3720F4019683
:1004C000A11DB11D05C026E8230F0296A11DB11D77
:1004D000209357018093580190935901A0935A019A
:1004E000B0935B0180915C0190915D01A0915E01F0
:1004F000B0915F010196A11DB11D80935C019093A5
:100500005D01A0935E01B0935F01BF91AF919F9198
:100510008F913F912F910F900FBE0F901F901895C4
:100520002FB7F894609158017091590180915A0148
:1005300090915B012FBF0895789484B5826084BD4B
:1005400084B5816084BD85B5826085BD85B58160D7
:1005500085BDEEE6F0E0808181608083E1E8F0E037
:100560001082808182608083808181608083E0E866
:10057000F0E0808181608083E1EBF0E08081846045
:100580008083E0EBF0E0808181608083EAE7F0E047
:1005900080818460808380818260808380818160AB
:1005A00080838081806880831092C10008958330A9
:1005B00081F028F4813099F08230A1F008958730DD
:1005C000A9F08830B9F08430D1F4809180008F7D1B
:1005D00003C0809180008F7780938000089584B558
:1005E0008F7702C084B58F7D84BD08958091B0005F
:1005F0008F7703C08091B0008F7D8093B000089505
:10060000CF93DF9390E0FC01E458FF4F2491FC016D
:10061000E057FF4F8491882349F190E0880F991F9C
:10062000FC01E854FF4FA591B49182559F4FFC0106
:10063000C591D4919FB7611108C0F8948C91209511
:1006400082238C93888182230AC0623051F4F8940B
:100650008C91322F309583238C938881822B8883D1
:1006600004C0F8948C91822B8C939FBFDF91CF9123
:1006700008950F931F93CF93DF931F92CDB7DEB7EB
:10068000282F30E0F901E859FF4F8491F901E4582F
:10069000FF4F1491F901E057FF4F04910023C9F077
:1006A000882321F069830E94D7026981E02FF0E05E
:1006B000EE0FFF1FE255FF4FA591B4919FB7F8943D
:1006C0008C91611103C01095812301C0812B8C9303
:1006D0009FBF0F90DF91CF911F910F910895CF93FE
:1006E000DF93282F30E0F901E859FF4F8491F90199
:1006F000E458FF4FD491F901E057FF4FC491CC2348
:1007000091F081110E94D702EC2FF0E0EE0FFF1F55
:10071000EC55FF4FA591B4912C912D2381E090E0F1
:1007200021F480E002C080E090E0DF91CF91089555
:10073000FC01818D228D90E0805C9F4F821B91098E
:100740008F7399270895FC01918D828D981731F050
:10075000828DE80FF11D858D90E008958FEF9FEF5A
:100760000895FC01918D828D981761F0828DDF01D3
:10077000A80FB11D5D968C91928D9F5F9F73928F94
:1007800090E008958FEF9FEF089585E395E0892B22
:1007900049F080E090E0892B29F00E943505811115
:1007A0000C9400000895FC01848DDF01A80FB11D99
:1007B000A35ABF4F2C91848D90E001968F73992797
:1007C000848FA689B7892C93A089B1898C91806484
:1007D0008C93938D848D981306C00288F389E02D45
:1007E00080818F7D80830895CF93DF93EC01888D86
:1007F0008823C9F0EA89FB89808185FD05C0A88925
:10080000B9898C9186FD0FC00FB607FCF5CF8081AA
:1008100085FFF2CFA889B9898C9185FFEDCFCE01F4
:100820000E94D303E7CFDF91CF910895CF92DF925B
:10083000FF920F931F93CF93DF931F92CDB7DEB735
:100840006C01DC015B969C915B975C968C915C974C
:10085000981307C05096ED91FC915197808185FDCA
:1008600032C0F601038D10E00F5F1F4F0F73112789
:10087000F02EF601848DF81211C00FB607FCF9CFE7
:10088000D6015096ED91FC915197808185FFF1CF73
:10089000C60169830E94D3036981EBCF838DE80F82
:1008A000F11DE35AFF4F6083D6015B960C935B9773
:1008B0005296ED91FC91539780818062808381E014
:1008C00058968C930DC0D6015696ED91FC91579792
:1008D00060835096ED91FC91519780818064808374
:1008E00081E090E00F90DF91CF911F910F91FF90E9
:1008F000DF90CF900895BF92CF92DF92EF92FF9258
:10090000CF93DF93EC016A017B01B22EE889F9896C
:1009100082E08083411581EE580761057105A1F0E1
:1009200060E079E08DE390E0A70196010E94630604
:100930002150310941095109569547953795279519
:10094000211580E1380798F0E889F989108260E87C
:1009500074E88EE190E0A70196010E9463062150A1
:100960003109410951095695479537952795EC85E9
:10097000FD853083EE85FF852083188EEC89FD8907
:10098000B082EA89FB89808180618083EA89FB8962
:10099000808188608083EA89FB8980818068808388
:1009A000EA89FB8980818F7D8083DF91CF91FF90E1
:1009B000EF90DF90CF90BF9008951F920F920FB6E7
:1009C0000F9211242F938F939F93EF93FF93E091B6
:1009D0007001F09171018081E0917601F0917701D1
:1009E00082FD12C09081809179018F5F8F73209179
:1009F0007A01821751F0E0917901F0E0E05AFE4F60
:100A0000958F8093790101C08081FF91EF919F9133
:100A10008F912F910F900FBE0F901F9018951F92DE
:100A20000F920FB60F9211242F933F934F935F9322
:100A30006F937F938F939F93AF93BF93EF93FF93A6
:100A400080E691E00E94D303FF91EF91BF91AF91B7
:100A50009F918F917F916F915F914F913F912F91D6
:100A60000F900FBE0F901F90189580E691E00E94A6
:100A7000980321E0892B09F420E0822F0895109239
:100A800063011092620188EE93E0A0E0B0E08093F1
:100A9000640190936501A0936601B093670185E3BB
:100AA00091E0909361018093600185EC90E09093D8
:100AB0006D0180936C0184EC90E090936F018093C2
:100AC0006E0180EC90E0909371018093700181EC55
:100AD00090E0909373018093720182EC90E0909388
:100AE00075018093740186EC90E090937701809378
:100AF00076011092790110927A0110927B01109286
:100B00007C01089508950E949C020E9482050E9423
:100B10008D00C5ECD3E00E94A2002097E1F30E9473
:100B2000C503F9CFCF92DF92EF92FF920F931F93FD
:100B3000CF93DF936C017A01EB01E60EF71E00E024
:100B400010E0CE15DF0561F06991D601ED91FC91C1
:100B50000190F081E02DC6010995080F191FF1CF12
:100B6000C801DF91CF911F910F91FF90EF90DF901F
:100B7000CF9008956115710581F0DB010D90002083
:100B8000E9F7AD0141505109461B570BDC01ED91CE
:100B9000FC910280F381E02D099480E090E00895BB
:100BA000DC01ED91FC910190F081E02D09940F930F
:100BB0001F93CF93DF93EC016DE00E94D0058C0171
:100BC0006AE0CE010E94D005800F911FDF91CF9186
:100BD0001F910F9108950F931F93CF93DF93EC0113
:100BE0000E94BA058C01CE010E94D705800F911F8B
:100BF000DF91CF911F910F9108958F929F92AF92A5
:100C0000BF92CF92DF92EF92FF920F931F93CF93F9
:100C1000DF93CDB7DEB7A1970FB6F894DEBF0FBE56
:100C2000CDBF7C01C42EE52FCB01D22E19A221E02D
:100C30002D1510F02AE0D22E8E010F5D1F4F8D2C46
:100C4000912CA12CB12C6C2D7E2FA50194010E941A
:100C500063068C2DD29E80191124015011098A300F
:100C600014F4805D01C0895CF80180832115310591
:100C70004105510521F0C22EE32FCA01E4CFB8018E
:100C8000C7010E94BA05A1960FB6F894DEBF0FBE49
:100C9000CDBFDF91CF911F910F91FF90EF90DF902B
:100CA000CF90BF90AF909F908F9008952115310500
:100CB00041F4DC01ED91FC910190F081E02D642F75
:100CC00009940C94FD05A1E21A2EAA1BBB1BFD0181
:100CD0000DC0AA1FBB1FEE1FFF1FA217B307E4071B
:100CE000F50720F0A21BB30BE40BF50B661F771F73
:100CF000881F991F1A9469F7609570958095909553
:100D00009B01AC01BD01CF010895EE0FFF1F0590BF
:0A0D1000F491E02D0994F894FFCF50
:100D1A0020427574746F6E20726F736521002042D1
:100D2A007574746F6E20726574726967676572652F
:100D3A0064210020427574746F6E2066656C6C21A4
:100D4A000000000000160492059803B103A303F4FF
:020D5A00030094
:00000001FF
