:100000000C9462000C947F000C947F000C947F0091
:100010000C947F000C947F000C947F000C947F0064
:100020000C947F000C947F000C947F000C947F0054
:100030000C947F000C947F000C947F000C947F0044
:100040000C9483010C947F000C947F000C947F002F
:100050000C947F000C947F000C947F000C947F0024
:100060000C947F000C947F00000000080002010047
:100070000003040700000000000000000102040863
:100080001020408001020408102001020408102002
:10009000040404040404040402020202020203032E
:1000A00003030303000000002300260029000000D2
:1000B0000000250028002B0000000000240027007D
:1000C0002A00990011241FBECFEFD8E0DEBFCDBFBC
:1000D00021E0A0E0B1E001C01D92AD31B207E1F72F
:1000E00010E0C4ECD0E004C02297FE010E94E702B9
:1000F000C23CD107C9F70E94D6020C94EB020C94C3
:10010000000060E082E00E943D0261E08DE00C941E
:100110003D0280E091E00E94E30080E091E00E94D7
:100120007E01882311F061E001C060E08DE00C9455
:1001300076020F931F9304EF11E022E330E04AE0D0
:1001400050E062E070E080E091E00E94AA001F9120
:100150000F9108950F931F93FC01638B518B408B7C
:10016000158704873787268710861186128613869F
:1001700080E2828B1F910F9108950F931F93CF936D
:10018000DF931F92CDB7DEB78C01FC01638B862F06
:1001900069830E94AC02F801128A6981862F0E944D
:1001A000AC02892B19F083E0F801828B0E94CD010B
:1001B000F80160837183828393830F90DF91CF91E5
:1001C0001F910F910895FF920F931F93CF93DF9389
:1001D000EC018A8985FF09C06B8970E0CE010E941D
:1001E000BD008A8980728A8B83C08B890E94AC0291
:1001F000FF24F394892B09F4F12C8A89982F977F97
:100200009A8B86958170F81651F00E94CD01688313
:1002100079838A839B838A8992E0892721C00E94FF
:10022000CD01088119812A813B81601B710B820BF2
:10023000930B0889198920E030E060177107820765
:10024000930778F08A8981708F1559F00E94CD014B
:10025000688379838A839B838A8991E08927886070
:100260008A8B8A8983FF1EC084FD1AC00E94CD013B
:100270000C811D812E813F81601B710B820B930BC2
:100280000C851D8520E030E0601771078207930719
:1002900038F10E94CD016C837D838E839F8324C0BF
:1002A0008F7E1DC04C815D816E817F81452B462BE9
:1002B000472BD1F00E94CD010C811D812E813F8101
:1002C000601B710B820B930B0C851D8520E030E0C9
:1002D000601771078207930738F08A8980618A8BDB
:1002E0001C821D821E821F828A8983FB882780F9D7
:1002F000DF91CF911F910F91FF900895FC018289AA
:100300008295817008951F920F920FB60F9211245B
:100310002F933F938F939F93AF93BF93809115013A
:1003200090911601A0911701B0911801309114011C
:1003300023E0230F2D3720F40196A11DB11D05C028
:1003400026E8230F0296A11DB11D2093140180936E
:10035000150190931601A0931701B0931801809195
:10036000190190911A01A0911B01B0911C010196F5
:10037000A11DB11D8093190190931A01A0931B0137
:10038000B0931C01BF91AF919F918F913F912F919D
:100390000F900FBE0F901F9018952FB7F894609193
:1003A00015017091160180911701909118012FBFCE
:1003B0000895789484B5826084BD84B5816084BDDD
:1003C00085B5826085BD85B5816085BDEEE6F0E0CE
:1003D000808181608083E1E8F0E01082808182602A
:1003E0008083808181608083E0E8F0E080818160AB
:1003F0008083E1EBF0E0808184608083E0EBF0E0DB
:10040000808181608083EAE7F0E08081846080837E
:100410008081826080838081816080838081806828
:1004200080831092C1000895833081F028F48130D8
:1004300099F08230A1F008958730A9F08830B9F0A2
:100440008430D1F4809180008F7D03C08091800042
:100450008F7780938000089584B58F7702C084B52C
:100460008F7D84BD08958091B0008F7703C0809107
:10047000B0008F7D8093B0000895CF93DF9390E01C
:10048000FC01E458FF4F2491FC01E057FF4F849199
:10049000882349F190E0880F991FFC01E854FF4F31
:1004A000A591B49182559F4FFC01C591D4919FB7FE
:1004B000611108C0F8948C91209582238C938881D7
:1004C00082230AC0623051F4F8948C91322F309517
:1004D00083238C938881822B888304C0F8948C9129
:1004E000822B8C939FBFDF91CF9108950F931F9321
:1004F000CF93DF931F92CDB7DEB7282F30E0F901FD
:10050000E859FF4F8491F901E458FF4F1491F90124
:10051000E057FF4F04910023C9F0882321F069833D
:100520000E9414026981E02FF0E0EE0FFF1FE255F8
:10053000FF4FA591B4919FB7F8948C91611103C0BE
:100540001095812301C0812B8C939FBF0F90DF9169
:10055000CF911F910F910895CF93DF93282F30E013
:10056000F901E859FF4F8491F901E458FF4FD49104
:10057000F901E057FF4FC491CC2391F081110E9403
:100580001402EC2FF0E0EE0FFF1FEC55FF4FA5918A
:10059000B4912C912D2381E090E021F480E002C001
:1005A00080E090E0DF91CF91089508950E94D901F5
:1005B0000E94D5020E948100C0E0D0E00E94890024
:1005C0002097E1F30E940000F9CFEE0FFF1F059086
:0A05D000F491E02D0994F894FFCF98
:00000001FF
